:020000040800F2
:1000000008040020D9000008E1000008E30000080F
:1000100000000000000000000000000000000000E0
:10002000000000000000000000000000E5000008E3
:100030000000000000000000E7000008E9000008E0
:10004000EB00000800000000EB000008EB000008D7
:10005000EB000008EB000008EB000008EB000008D4
:1000600000000000EB000008EB000008EB000008B7
:10007000EB000008EB000008EB00000800000000A7
:10008000EB0000080000000000000000EB0000088A
:1000900000000000EB000008EB000008EB00000887
:1000A000EB000008EB000008EB000008EB00000884
:1000B000EB0000080000000000000000000000004D
:1000C0000448854600F03EF800480047C903000890
:1000D000C046C04608040020044880470448004742
:1000E000FEE7FEE7FEE7FEE7FEE7FEE74503000862
:1000F000C100000830B50B46014600202022012433
:1001000009E00D46D5409D4205D31D469540491B4B
:100110002546954040191546521E002DF1DC30BD94
:10012000D2B201E00270401C491EFBD2704700228F
:10013000F6E710B513460A4604461946FFF7F0FFE6
:10014000204610BD064C0125064E05E0E36807CCAD
:100150002B430C3C98471034B442F7D3FFF7B4FF5D
:10016000F403000814040008F0B502460B4600260C
:100170006AE00124B44019682140002963D058681E
:10018000012802D05868022815D1986894680D4655
:100190004D436F00ED19AC430D464D4345432C4391
:1001A000946000BFD86854688C430D4645432C4387
:1001B000546000BF00BF1869D4680D464D436F00FE
:1001C000ED19AC430D464D4345432C43D46000BF6D
:1001D0005868022829D1FF2911D85869146A0D4698
:1001E0004D434D434D432F017D1BAC430D464D43C5
:1001F0004D434D4345432C43146200BF15E05F69F6
:10020000080A40430C0A60430C0A60430401241AA4
:10021000506AA0430C0A64430D0A6C430D0A6C43F8
:100220007C432043506200BF00BF586814680D46ED
:100230004D436F00ED19AC430D464D4345432C43F0
:10024000146000BF00BF761C1868F040002890D1F1
:10025000F0BD000070B504467D25ED00294620461E
:10026000FFF748FF401E04494861002088610520CF
:10027000086100BF70BD000000E000E001490860B7
:10028000704700000000002008B501460A4A1269C4
:10029000009200BF0846421C002A00D0401C07E024
:1002A000054A126901231B041A40002A00D0401E8F
:1002B0000028F5D108BD000000E000E010B500BF47
:1002C0001E480068FF21013108431C49086000BF37
:1002D00000BF00BF19480068012189020840800A58
:1002E0000028F6D00020154989680F221202914398
:1002F0000143124A916000BF00BF11468968C908D6
:10030000C9000143916000BF00BF00BF0B48806877
:10031000382108400028F8D100BF08498968072221
:10032000120391430143054A916000BF0448FFF75F
:1003300091FF0348FFF7A2FF10BD0000001002402C
:100340000024F400704702E008C8121F08C1002A08
:10035000FAD170477047002001E001C1121F002A46
:10036000FBD1704710B5FFF7A9FF00F009F8012095
:1003700040030249886200BF10BD00000008005021
:1003800000B587B0182101A8FFF7D1FE04200C4961
:10039000496B01430A4A51631146496B0140009180
:1003A00000BF00BFC0020190012002900020039016
:1003B0000490059001A90348FFF7D6FE07B000BDE1
:1003C0000010024000080050FFF7CCFF0FE00120B2
:1003D0004003074A51690A460240120403468B4310
:1003E0001A43034B9A6100BF6420FFF74DFFEEE70D
:1003F0000008005014040008000000200400000061
:10040000460300081804000804000020040400004B
:08041000560300080024F4006B
:04000005080000D916
:00000001FF
